:100000000C9474000C9495000C9495000C9495003D
:100010000C9495000C9495000C9495000C9495000C
:100020000C9495000C9495000C9495000C949500FC
:100030000C9495000C9495000C9495000C949500EC
:100040000C9495000C9495000C9495000C949500DC
:100050000C9495000C9495000C9495000C949500CC
:100060000C9495000C94C9000C94FC000C94950021
:100070000C9495000C9495000C9495000C949500AC
:100080000C9495000C9495000C9495000C9495009C
:100090000C9495000C9495000C9495000C9495008C
:1000A0000C9495000C9495000C9495000C9495007C
:1000B0000C9495000C9495000C9495000C9495006C
:1000C0000C9495000C9495000C9495000C9495005C
:1000D0000C9495000C9495000C9495000C9495004C
:1000E0000C9495000C942D0111241FBECFEFD1E28A
:1000F000DEBFCDBF00E00CBF12E0A0E0B2E0EEE357
:10010000F3E000E00BBF02C007900D92AE30B107E4
:10011000D9F722E0AEE0B2E001C01D92A733B207EA
:10012000E1F70E9480010C949D010C940000FC01F9
:1001300010A20895FC0190A1903240F4DF01A90FB4
:10014000B11D6C939F5F90A380E0089581E00895B6
:10015000FC0180A1803258F4DF01A80FB11D8C9101
:10016000DB018C9380A18F5F80A380E0089581E004
:1001700008951092C50083E38093C400E2ECF0E0A0
:10018000808186608083E1ECF0E0808180698083FB
:1001900008951F920F920FB60F9211240BB60F9273
:1001A0008F939F93EF93FF939091C60080913002BD
:1001B0008032A8F4E82FF0E0E05FFD4F90838F5F7E
:1001C00080933002803259F0FF91EF919F918F918F
:1001D0000F900BBE0F900FBE0F901F9018951092AE
:1001E00030028091C1008F768093C1008091C10060
:1001F00088628093C100E8CF1F920F920FB60F92D2
:1002000011240BB60F928F939F93EF93FF938091DE
:1002100030028032A8F4E82FF0E0E05FFD4F9081DB
:100220009093C6008F5F80933002FF91EF919F9172
:100230008F910F900BBE0F900FBE0F901F901895CF
:10024000109230028091C100877D8093C10080911F
:10025000C10080698093C100E8CF8A3049F0909155
:10026000C00095FFFCCF8093C60080E090E0089529
:100270009091C00095FFFCCF9DE09093C600EFCF1A
:100280009093C5008093C40086E08093C20088E903
:100290008093C10008959091C00095FFFCCF80939A
:1002A000C60008958091C00087FFFCCF8091C600F2
:1002B00008958091C000881F8827881F0895FC0139
:1002C0002081222351F031969091C00095FFFCCF00
:1002D0002093C60021912111F7CF089580E092E08C
:1002E00090933402809333021092C50082E380938E
:1002F000C40086E08093C20088E98093C10008951D
:100300001092300283B7817F83BF1092C50083E3D0
:100310008093C4008091C20086608093C200809167
:10032000C10080698093C100789483B7816083BFE6
:0E033000889583B78E7F83BFF8CFF894FFCFF8
:0E033E0000000002000000002D010000000081
:00000001FF
