:100000000C94D4000C94F5000C94F5000C94F500BD
:100010000C94F5000C94F5000C94F5000C94F5008C
:100020000C94F5000C94F5000C94F5000C94F80673
:100030000C94F5000C9476060C94F5000C94F500E5
:100040000C94F5000C94F5000C94F5000C94F5005C
:100050000C94F5000C94F5000C94F5000C94F5004C
:100060000C94F5000C94F1040C94D4050C94F50058
:100070000C94F5000C9412060C94F5000C94F50009
:100080000C94F5000C94F5000C94F5000C94F5001C
:100090000C94F5000C94F5000C94F5000C94F5000C
:1000A0000C94F5000C94F5000C94F5000C94F500FC
:1000B0000C94F5000C94F5000C94F5000C94F500EC
:1000C0000C94F5000C94F5000C94F5000C94F500DC
:1000D0000C94F5000C94F5000C94F5000C94F500CC
:1000E0000C94F500B501C501D501E501F9010D023A
:1000F000A5018101E602FF02180331034E036B03E1
:10010000CD029F025F066206650668066B066E06F4
:1001100071065C064906ED06EA06E706E106BB063F
:10012000E406F0060C945F060C9465060C946806D1
:100130000C94E7060C94E1060C946B060C946B038C
:100140000C944E030C94ED060C94E4060C9481017F
:100150000C94E6020C9462060C94A5010C945C06C7
:100160000C94F0060C946E060C9431030C94F90177
:100170000C94EA060C94BB060C9471060C94C50111
:100180000C94E5010C94FF020C94CD020C94D50163
:100190000C9449060C94B5010C949F020C9418031E
:1001A0000C94DB070C940D0211241FBECFEFD1E29B
:1001B000DEBFCDBF00E00CBF12E0A0E0B2E0EAEF8E
:1001C000F0E100E00BBF02C007900D92A031B10733
:1001D000D9F722E0A0E1B2E001C01D92A634B20737
:1001E000E1F70E942E080C947B080C940000FC019F
:1001F000108628E011922A95E9F70895DC011896F7
:100200001C92FC01619387E0DF011D928A95E9F75A
:1002100008951092B0008DE08093B1008CE9809336
:10022000B300F894E0E7F0E0808182608083789406
:100230000895FC018381982F9695482F4170292FAE
:100240002170420F9695292F2170420F9695292FE4
:100250002170420F382F330F330F330F91FB2227BA
:1002600020F9942F920F932B93834081228130E0C9
:10027000240F311D290F311D882391F09481290FFE
:10028000311D823068F09581290F311D823041F097
:100290009681290F311D833019F08781280F311D78
:1002A000832F9927892B11F02F5F3F4F21830895CA
:1002B000FC012381283421F08EE4FB018083089522
:1002C00024812534C9F725812C34B1F726812C34BB
:1002D00099F787818F3481F781E0FB018283138254
:1002E00008950F931F93982F6095082F10E0083002
:1002F0001105B0F4F8018827EE58FF4F8F4F0C948A
:1003000073088091800081638093800080918100D8
:10031000896080938100269A10928B0060938A00F6
:1003200021E030E0B90102C0660F771F9A95E2F72D
:10033000CB0190912A02892B80932A0282E0FA0154
:10034000828313821F910F91089580918000816CA8
:100350008093800080918100896080938100259A3C
:100360001092890060938800DBCF809190008163B8
:1003700080939000809191008960809391006C9AA5
:1003800010929B0060939A00CBCF809190008D607B
:1003900080939000809191008960809391006D9A84
:1003A00010929D0060939C00BBCF80919000816C67
:1003B00080939000809191008960809391006B9A66
:1003C0001092990060939800ABCF8091A000816C4F
:1003D0008093A0008091A10089608093A10080910A
:1003E00001018860809301011092A9006093A80028
:1003F00097CF8091A00081638093A0008091A1009D
:1004000089608093A1008091010180618093010146
:100410001092AB006093AA0083CF8091A0008D6002
:100420008093A0008091A10089608093A1008091B9
:1004300001018062809301011092AD006093AC00D5
:100440006FCFCF93DF93FA0140912902411117C07A
:1004500090E490937C0097E890937A001092B0001B
:100460009DE09093B1009CE99093B300F894909133
:100470007000926090937000789440912902A82FA8
:10048000B0E021E030E0E90102C0CC0FDD1F8A9529
:10049000E2F7CE01842B80932902AF5DBD4F6C93B0
:1004A00080917A00806480937A0080917A0086FD42
:1004B000FCCF8091790090E0982F882720917800D8
:1004C000822B9695879596958795863970F02F980B
:1004D00093E09283138290917800948390917900B5
:1004E00095838683DF91CF9108952F9AF1CFDB0119
:1004F00094E012969C93129792E013969C93139714
:10050000E82FF0E0EE0FFF1FEF5EFD4F808191813D
:1005100014968C9314978081918115969C930895DD
:100520000F931F93982F082F10E008301105F8F44F
:10053000F8018827E658FF4F8F4F0C94730880917D
:100540002A0286FD0AC0809180008160809380002D
:100550008091810089608093810080918000806318
:1005600080938000269810928B0010928A0021E0E0
:1005700030E0A90102C0440F551F9A95E2F7CA0165
:10058000809590912A02892380932A0285E0FB01BD
:10059000828313821F910F91089580912A0287FD13
:1005A0000AC08091800081608093800080918100EA
:1005B00089608093810080918000806C80938000AE
:1005C00025981092890010928800D1CF80912A023C
:1005D000867051F4809190008160809390008091AA
:1005E0009100896080939100809190008063809356
:1005F00090006C9810929B0010929A00B8CF809156
:100600002A02857051F4809190008160809390005F
:1006100080919100896080939100809190008C601E
:10062000809390006D9810929D0010929C009FCF37
:1006300080912A02837051F48091900081608093B0
:10064000900080919100896080939100809190004A
:10065000806C809390006B98109299001092980093
:1006600086CF80912A02807351F48091A00081602E
:100670008093A0008091A10089608093A100809167
:10068000A000806C8093A00080910101877F8093FF
:1006900001011092A9001092A80069CF80912A024E
:1006A000887251F48091A00081608093A0008091B5
:1006B000A10089608093A1008091A0008063809355
:1006C000A000809101018F7E809301011092AB0008
:1006D0001092AA004CCF80912A02887151F4809127
:1006E000A00081608093A0008091A1008960809328
:1006F000A1008091A0008C608093A00080910101F6
:100700008F7D809301011092AD001092AC002FCF2D
:10071000E82FF0E021E030E0A90102C0440F551FAE
:100720008A95E2F7CA0180959091290289238093E6
:100730002902EF5DFD4F108281110CC010927C00E8
:1007400010927A00F8941092700078941092B10090
:100750001092B30086E0FB01828313820895FC01AE
:1007600080819FEF980F963010F08FEF08952281CF
:10077000322F369536953695932F96953170492FB1
:100780004170340F9695492F4170340F9695492F3B
:100790004170340F422F47709695930F4913E5CF60
:1007A000418130E0280F311D5481838190E0850F15
:1007B000911D820F931F2581820F911D2681820F2B
:1007C000911D2781820F911D292F3327232B09F09B
:1007D00001964813CACF1092360281E480932E020C
:1007E00087E0EFE2F2E0DF011D928A95E9F780E011
:1007F0000895FC0190819330D9F158F1953099F129
:1008000008F48EC0963091F52381E22FF0E081E06C
:1008100090E001C0880F2A95EAF78095909129020F
:10082000892380932902EF5DFD4F108281110CC056
:1008300010927C0010927A00F894109270007894D4
:100840001092B1001092B30086E0FB018283138204
:100850000895913009F47DC0923049F4AB01648170
:1008600083810C94710183810C9490020895089502
:100870004481338120912902211117C080E48093A3
:100880007C0087E880937A001092B0008DE080931E
:10089000B1008CE98093B300F8948091700082607D
:1008A00080937000789420912902E32FF0E081E09A
:1008B00090E001C0880F3A95EAF7822B80932902D5
:1008C000EF5DFD4F408380917A00806480937A00D1
:1008D00080917A0086FDFCCF8091790090E0982F7E
:1008E000882720917800822B9695879596958795F5
:1008F0008639B0F12F9893E0DB0112969C93129702
:1009000013961C9213979091780014969C931497C9
:100910009091790015969C93159716968C9308954F
:10092000E38184E0DB0112968C93129782E01396A8
:100930008C931397F0E0EE0FFF1FEF5EFD4F808169
:10094000918114968C9314978081918115969C9334
:1009500008958381883431F08EE4DB018C9308950F
:100960002F9AC9CF84818534B9F785818C34A1F75A
:1009700086818C3489F787818F3471F7FB019283EC
:1009800013820895FC019085983040F4DF01A90F8F
:10099000B11D6C939F5F908780E0089581E008957A
:1009A000FC018085883058F4DF01A80FB11D8C91BF
:1009B000DB018C9380858F5F808780E0089581E0E4
:1009C00008951092C50083E38093C400E2ECF0E048
:1009D000808186608083E1ECF0E0808180698083A3
:1009E00008951F920F920FB60F9211240BB60F921B
:1009F0002F933F934F935F936F937F938F939F9327
:100A0000AF93BF93EF93FF939091C60080913F0205
:100A10008830E8F4E82FF0E0E95CFD4F90838F5FC9
:100A200080933F02883099F0FF91EF91BF91AF9191
:100A30009F918F917F916F915F914F913F912F91F6
:100A40000F900BBE0F900FBE0F901F9018958091C6
:100A5000C1008F768093C100109236028EE480939D
:100A60002E02EFE2F2E087E0DF011D928A95E9F7BE
:100A7000909137028FEF890F863008F44BC0209198
:100A80003102822F8695482F4170922F9170490F25
:100A90008695982F9170490F8695982F9170490FE0
:100AA000322F330F330F330F81FB992790F9842FA7
:100AB000890F382B3093310240912E028091300201
:100AC00090E0840F911D830F911D2223B1F030918E
:100AD0003202830F911D223080F030913302830F58
:100AE000911D223051F030913402830F911D23303B
:100AF00021F020913502820F911D292F3327232BBE
:100B000009F0019680932F028091C1008862809342
:100B1000C1008ACF20913902322F3695369536950D
:100B2000832F86953170482F4170340F8695482F5A
:100B30004170340F8695482F4170340F422F477013
:100B40008695830F48139BCF4091380230E0290FE0
:100B5000311D50913B0280913A0290E0850F911D2A
:100B6000820F931F20913C02820F911D20913D0224
:100B7000820F911D20913E02820F911D292F332754
:100B8000232B09F0019648137ACF81E480932E023B
:100B900087E0DF011D928A95E9F76EE272E087E354
:100BA00092E00E94F9036BCF1F920F920FB60F9243
:100BB00011240BB60F928F939F93AF93BF93EF9334
:100BC000FF93809136028830C8F4E82FF0E0E25DB0
:100BD000FD4F90819093C6008F5F809336028830DE
:100BE00069F0FF91EF91BF91AF919F918F910F901D
:100BF0000BBE0F900FBE0F901F9018958091C100F3
:100C0000877D8093C10010923F0288E0E7E3F2E025
:100C1000DF011D928A95E9F78091C1008069809378
:100C2000C100DFCF1F920F920FB60F9211240BB6A7
:100C30000F922F933F934F938F939F93AF93BF93B5
:100C4000EF93FF938091790090E0982F882720916F
:100C50007800822BE0911002F0E0EE0FFF1FEF5EB4
:100C6000FD4F918380839C01369527953695279576
:100C7000E0911002F0E0EF5DFD4F808190E089305F
:100C8000910550F4FC018827EE57FF4F8F4F0C94CD
:100C90007308263948F12F98FF91EF91BF91AF91DA
:100CA0009F918F914F913F912F910F900BBE0F907D
:100CB0000FBE0F901F90189520938A00EDCF2093C0
:100CC0009A00EACF20939C00E7CF20939800E4CFCE
:100CD0002093A800E1CF2093AA00DECF2093AC00A0
:100CE000DBCF20938800D8CF2F9AD6CF1F920F92B8
:100CF0000FB60F9211240BB60F922F933F934F9381
:100D00005F936F937F938F939F93AF93BF93CF9393
:100D1000EF93FF9380912B0290912C020196909378
:100D20002C0280932B0280912B0290912C028C3DFF
:100D3000954008F058C0189520E030E0C7E0B6E0D4
:100D4000A5E074E063E052E041E08091290290E088
:100D5000022E02C0959587950A94E2F780FF18C08D
:100D6000F9013197E730F10540F48827E557FF4F47
:100D70008F4F0C947308A0937C00209310028091F5
:100D80007A00806480937A0080917A0086FDFCCF9F
:100D90002F5F3F4F28303105C1F6FF91EF91CF9182
:100DA000BF91AF919F918F917F916F915F914F9183
:100DB0003F912F910F900BBE0F900FBE0F901F9081
:100DC000189570937C00D9CFB0937C00D6CF6093F8
:100DD0007C00D3CF50937C00D0CF40937C00CDCF0C
:100DE000C0937C00CACF10922C0210922B02A4CF89
:100DF0001F920F920FB60F9211242F938F939F93F0
:100E00008091060180932D0280912D0280FD0AC001
:100E10008091AA008B3108F4AFC08091AA008A515A
:100E20008093AA0080912D0281FD0AC08091AA00C2
:100E3000853E08F098C08091AA00865E8093AA0043
:100E400080912D0282FD0AC08091AC008B3108F4A4
:100E500082C08091AC008A518093AC0080912D02B9
:100E600083FD0AC08091AC00853E08F06BC0809184
:100E7000AC00865E8093AC0080912D0284FD0AC098
:100E8000809188008B3108F455C0809188008A5188
:100E90008093880080912D0285FD0AC08091880092
:100EA000853E08F03FC080918800865E8093880070
:100EB00080912D0286FD09C080918A008B3158F106
:100EC00080918A008A5180938A0080912D0287FD4B
:100ED0000BC080918A00853EC0F080918A008F3FD0
:100EE00019F08FEF80938A002FEF83EC99E0215067
:100EF00080409040E1F700C000009F918F912F91BA
:100F00000F900FBE0F901F90189580918A00865EFB
:100F100080938A00E9CF80918A008823B1F21092F1
:100F20008A00D3CF809188008F3F11F28FEF80939A
:100F30008800BECF80918800882309F4ABCF10923F
:100F40008800A8CF8091AC008F3F09F495CF8FEF38
:100F50008093AC0091CF8091AC00882309F47ECFC0
:100F60001092AC007BCF8091AA008F3F09F468CF2C
:100F70008FEF8093AA0064CF8091AA00882309F4A0
:100F800051CF1092AA004ECFE7E0F1E080811082AD
:100F9000E8E0F1E080819FEF9083F894E8E6F0E0EC
:100FA000808184608083EDE6F0E080819083789496
:100FB0000895279A08958A3049F09091C00095FFCE
:100FC000FCCF8093C60080E090E008959091C0002F
:100FD00095FFFCCF9DE09093C600EFCF9093C500A6
:100FE0008093C40086E08093C20088E98093C100AA
:100FF00008959091C00095FFFCCF8093C60008959E
:101000008091C00087FFFCCF8091C6000895809139
:10101000C000881F8827881F0895FC012081222393
:1010200051F031969091C00095FFFCCF2093C600FF
:1010300021912111F7CF089580E092E0909343022F
:10104000809342021092C50082E38093C40086E040
:101050008093C20088E98093C100089510923F02F6
:1010600088E0E7E3F2E0DF011D928A95E9F710924C
:1010700036028EE480932E0287E0EFE2F2E0DF0199
:101080001D928A95E9F783B7817F83BF1092C500CF
:1010900083E38093C4008091C20086608093C20085
:1010A0008091C10080698093C100809107011092F6
:1010B0000701809108019FEF90930801F8948091B7
:1010C000680084608093680080916D0090936D004B
:1010D0007894279A789483B7816083BF889583B783
:1010E0008E7F83BFF8CFEE0FFF1F881F8BBF079047
:0A10F000F691E02D1994F894FFCF5B
:1010FA000000000200000000DB07000000000A00F8
:04000003000002B047
:00000001FF
