:100000000C94A4000C94C5000C94C5000C94C5007D
:100010000C94C5000C94C5000C94C5000C94C5004C
:100020000C94C5000C94C5000C94C5000C94C5003C
:100030000C94C5000C94C5000C94C5000C94C5002C
:100040000C94C5000C94C5000C94C5000C94C5001C
:100050000C94C5000C94C5000C94C5000C94C5000C
:100060000C94C5000C949E020C942A030C94C500B9
:100070000C94C5000C94C5000C94C5000C94C500EC
:100080000C94C5000C94C5000C94C5000C94C500DC
:100090000C94C5000C94C5000C94C5000C94C500CC
:1000A0000C94C5000C94C5000C94C5000C94C500BC
:1000B0000C94C5000C94C5000C94C5000C9464030A
:1000C0000C94C5000C94C5000C94C5000C94C5009C
:1000D0000C94C5000C94C5000C94C5000C94C5008C
:1000E0000C94C500150125013501450159016D012B
:1000F000F50005014F023F022F021B020702F30128
:10010000E3015F020C94E3010C9405010C943501AA
:100110000C945F020C9407020C9415010C94590185
:100120000C942F020C943F020C9425010C946D0149
:100130000C941B020C94F3010C9445010C944F0297
:100140000C94F5000C94970311241FBECFEFD1E25D
:10015000DEBFCDBF00E00CBF12E0A0E0B2E0E2E500
:10016000F8E000E00BBF02C007900D92A831B10784
:10017000D9F722E0A8E1B2E001C01D92A136B20792
:10018000E1F70E94EA030C9427040C940000FC01A0
:1001900010A20895FC0110A28EE48083818308954B
:1001A00021E4FC0120832183089525E5FC012083BF
:1001B0002183089520E5FC01208321830895E82F01
:1001C000F0E0DF01A053BE4F6C93F097E830F105EB
:1001D00030F080E58093190280931A0208958827F1
:1001E000EE58FF4F8F4F0C941F0480918000816C5C
:1001F0008093800080918100896080938100259A9E
:1002000010928900609388000895809180008D602D
:100210008093800080918100896080938100279A7B
:1002200010928D0060938C000895809190008163FE
:1002300080939000809191008960809391006C9AE6
:1002400010929B0060939A000895809190008D60B9
:1002500080939000809191008960809391006D9AC5
:1002600010929D0060939C00089580919000816C95
:1002700080939000809191008960809391006B9AA7
:10028000109299006093980008958091A000816C6D
:100290008093A0008091A10089608093A10080914B
:1002A00001018860809301011092A9006093A80069
:1002B00008958091A00081638093A0008091A100A7
:1002C00089608093A1008091010180618093010188
:1002D0001092AB006093AA0008958091A0008D60F9
:1002E0008093A0008091A10089608093A1008091FB
:1002F00001018062809301011092AD006093AC0017
:100300000895FC012281422F469546954695342F4B
:100310003695532F51704170450F3695532F5170BC
:10032000450F3695532F5170450F522F5770369504
:10033000340F531711F080E008956181408130E05F
:10034000240F311D3396AC01405E5F4F9191290F10
:10035000311DE417F507D1F7832F9927892B11F069
:100360002F5F3F4F6213E7CF81E4809319028093A0
:100370001A0281E00895FC019081943061F040F40C
:10038000913000F585E58093190280931A02089553
:100390009530C1F708959481E381F0E0DF01A05327
:1003A000BE4F9C93F097E830F10530F080E58093E4
:1003B000190280931A0208958827E658FF4F8F4F3D
:1003C0000C941F04089580918000816C80938000BC
:1003D00080918100896080938100259A1092890024
:1003E0009093880008958091A0008D608093A00074
:1003F0008091A10089608093A100809101018062B9
:10040000809301011092AD009093AC00089580910B
:10041000A00081638093A0008091A10089608093F7
:10042000A100809101018061809301011092AB00D5
:100430009093AA0008958091A000816C8093A00001
:100440008091A10089608093A10080910101886062
:10045000809301011092A9009093A80008958091C3
:100460009000816C809390008091910089608093CE
:1004700091006B9A10929900909398000895809142
:1004800090008D60809390008091910089608093AE
:1004900091006D9A10929D0090939C000895809118
:1004A0009000816380939000809191008960809397
:1004B00091006C9A10929B0090939A0008958091FD
:1004C00080008D608093800080918100896080939E
:1004D0008100279A10928D0090938C000895FC0162
:1004E00090A1903240F4DF01A90FB11D6C939F5F82
:1004F00090A380E0089581E00895FC0120A12230BE
:1005000010F081E00895E20FF11D2081FB012083AE
:10051000FC0120A12F5F20A380E008951092C50068
:1005200083E38093C400E2ECF0E080818660808306
:10053000E1ECF0E080818069808308951F920F9242
:100540000FB60F9211240BB60F922F933F934F9338
:100550005F936F937F938F939F93AF93BF93EF932B
:10056000FF939091C60080915A028032E8F4E82F00
:10057000F0E0E65CFD4F90838F5F80935A028032FB
:1005800099F0FF91EF91BF91AF919F918F917F91E2
:100590006F915F914F913F912F910F900BBE0F90F4
:1005A0000FBE0F901F9018958091C1008F76809399
:1005B000C10080913C02282F269526952695922FE2
:1005C0009695392F31702170230F9695392F317000
:1005D000230F9695392F3170230F382F377096954A
:1005E000920F391731F08091C10088628093C10069
:1005F000C8CF30913A0240913B0290E0830F911DA9
:10060000EDE3F2E02191820F911D22E0EA35F2073D
:10061000C9F7692F7727672B09F001964813E3CFB5
:1006200081E48093190280931A02343049F078F4FF
:100630003130C8F685E58093190280931A02D3CF32
:1006400060913E0280913D020E94DF00CCCF3530A8
:1006500051F2F0CF1F920F920FB60F9211240BB6EA
:100660000F928F939F93EF93FF9380913902823083
:10067000F0F08091C100877D8093C10010925A02F2
:10068000109239028EE48093190280931A028091AD
:10069000C10080698093C100FF91EF919F918F917C
:1006A0000F900BBE0F900FBE0F901F901895E82F64
:1006B000F0E0E75EFD4F90819093C6008F5F8093DE
:1006C0003902823049F7D5CF1F920F920FB60F92A1
:1006D00011248F9380911802882359F08FEF809313
:1006E0008C00109218028F910F900FBE0F901F90E8
:1006F00018958091070280938C0081E08093180206
:100700008F910F900FBE0F901F901895109220019F
:100710008DE08093210182E89EE1909329018093EE
:100720002801E3E7F0E080818260808308958A30C9
:1007300049F09091C00095FFFCCF8093C60080E007
:1007400090E008959091C00095FFFCCF9DE09093BC
:10075000C600EFCF9093C5008093C40086E08093DD
:10076000C20088E98093C10008959091C00095FF70
:10077000FCCF8093C60008958091C00087FFFCCF16
:100780008091C60008958091C000881F8827881F27
:100790000895FC012081222351F031969091C000F0
:1007A00095FFFCCF2093C60021912111F7CF08952A
:1007B00088E092E090935E0280935D021092C50003
:1007C00082E38093C40086E08093C20088E980932E
:1007D000C100089510925A02109239028EE480935B
:1007E000190280931A0283B7817F83BFF894109215
:1007F000C50083E38093C4008091C200866080932B
:10080000C2008091C10080698093C10010922001D4
:100810008DE08093210182E89EE1909329018093ED
:10082000280180917300826080937300789483B76D
:10083000816083BF889583B78E7F83BFF8CFEE0F2B
:10084000FF1F881F8BBF0790F691E02D1994F89435
:02085000FFCFD8
:10085200FFFFFFFFFFFFFFFF00000002000000009C
:08086200970300000000F401FF
:00000001FF
