:100000000C94E9000C940A010C940A010C940A0166
:100010000C940A010C940A010C940A010C940A0134
:100020000C940A010C940A080C940A010C940A011D
:100030000C940A010C940A010C940A010C940A0114
:100040000C940A010C940A010C940A010C940A0104
:100050000C940A010C940A010C940A010C940A01F4
:100060000C940A010C94FD060C94CC070C940A0124
:100070000C940A010C940A010C940A010C940A01D4
:100080000C940A010C940A010C940A010C940A01C4
:100090000C940A010C940A010C940A010C940A01B4
:1000A0000C940A010C940A010C940A010C940A01A4
:1000B0000C940A010C940A010C940A010C940A0194
:1000C0000C940A010C940A010C940A010C940A0184
:1000D0000C940A010C940A010C940A010C940A0174
:1000E0000C940A016201720182019201A601BA0117
:1000F0003A014E01DC05DE05E005E205E805EE0506
:10010000AE04D505AA069A068A06760662064E064B
:100110003A06BA0608000000BE922449123EABAA75
:10012000AA2ABECDCCCC4C3E00000080BEABAAAA11
:10013000AA3E00000000BF000000803F0000000059
:1001400000084178D3BB4387D1133D190E3CC3BD92
:100150004282AD2B3E68EC8276BED98FE1A93E4C3F
:1001600080EFFFBE01C4FF7F3F00000000000C9441
:100170004E060C94E2050C9482010C944E010C94F2
:10018000A6010C9472010C94AE040C9462010C94C0
:10019000BA010C943A060C94BA060C9462060C94BC
:1001A000AA060C9476060C94D5050C94EE050C94D6
:1001B0008A060C949A060C94DE050C94E8050C94BF
:1001C000DC050C9492010C943A010C94E3080C9415
:1001D000E00511241FBECFEFD1E2DEBFCDBF00E0AE
:1001E0000CBF12E0A0E0B2E0EEEBF7E100E00BBFE5
:1001F00002C007900D92A432B107D9F722E0A4E221
:10020000B2E001C01D92A134B207E1F70E943609A5
:100210000C94DD0B0C940000FC01108628E0119278
:100220002A95E9F70895FC01108660836183329670
:1002300086E0DF011D928A95E9F708956095E82F21
:10024000F0E0F097E830F10578F01092310280E5A7
:100250008093290280932A0286E0EBE2F2E0DF013C
:100260001D928A95E9F708958827EE58FF4F8F4F22
:100270000C94760980912001816C809320018091FB
:10028000210189608093210180910A018860809317
:100290000A0110922901609328010895809120019C
:1002A0008D608093200180912101896080932101DC
:1002B00080910A01806280930A0110922D0160935F
:1002C0002C0108958091900081638093900080912B
:1002D00091008960809391006C9A10929B006093CA
:1002E0009A000895809190008D6080939000809195
:1002F00091008960809391006D9A10929D006093A7
:100300009C00089580919000816C80939000809172
:1003100091008960809391006B9A1092990060938C
:10032000980008958091A000816C8093A000809136
:10033000A10089608093A100809101018860809371
:1003400001011092A9006093A80008958091A00077
:1003500081638093A0008091A10089608093A100B7
:10036000809101018061809301011092AB00609344
:10037000AA0008958091A0008D608093A0008091D4
:10038000A10089608093A100809101018062809327
:1003900001011092AD006093AC000895FC01228130
:1003A000822F869586958695982F96958170392F00
:1003B0003170830F9695392F3170830F9695392FB1
:1003C0003170830F322F37709695980F391711F0CF
:1003D00080E008956181808130E0A901480F511DBE
:1003E0008481238130E0280F311D240F351F858142
:1003F000280F311D8681280F311D8781A901480FE3
:10040000511DCA01252F3327232B09F001966813AC
:10041000DFCF1092310281E48093290280932A0277
:1004200086E0EBE2F2E0DF011D928A95E9F781E0D8
:100430000895FC0180EE81838AE2828388E48383CD
:1004400085E484838CE4858386838FE487830895A1
:10045000CF92DF92EF92FF92CF93DF93CDB7DEB7CB
:1004600068970FB6F894DEBF0FBECDBFFE01319680
:100470009E012B5E3F4F809178009091790081938F
:1004800091938FE39CE90197F1F700C00000E21718
:10049000F30789F769817A81072E000C880B990B85
:1004A0000E945F0A20E030E0A9010E947F099B01C1
:1004B000AC018B819C81BC01990F880B990B2D8B12
:1004C0003E8B4F8B588F0E945F0A2D893E894F8942
:1004D000588D0E947F099B01AC018D819E81BC01DA
:1004E000990F880B990B2D8B3E8B4F8B588F0E9449
:1004F0005F0A2D893E894F89588D0E947F096B01C3
:100500007C018F819885BC01990F880B990B0E9403
:100510005F0A9B01AC01C701B6010E947F096B0114
:100520007C0189859A85BC01990F880B990B0E94E3
:100530005F0A9B01AC01C701B6010E947F096B01F4
:100540007C018B859C85BC01990F880B990B0E94BF
:100550005F0A9B01AC01C701B6010E947F096B01D4
:100560007C018D859E85BC01990F880B990B0E949B
:100570005F0A9B01AC01C701B6010E947F096B01B4
:100580007C018F859889BC01990F880B990B0E947B
:100590005F0A9B01AC01C701B6010E947F096B0194
:1005A0007C0189899A89BC01990F880B990B0E945B
:1005B0005F0A9B01AC01C701B6010E947F099B0144
:1005C000AC018B899C89BC01990F880B990B2D8BF1
:1005D0003E8B4F8B588F0E945F0A2D893E894F8931
:1005E000588D0E947F0920E030E040E251E40E94F3
:1005F000EB099B01AC0160E070EC8FE794E40E9492
:10060000EB0920E030E040E85FE30E947E0920E053
:1006100030E44CE156E40E943B0B20E030E44CE136
:1006200056E40E94EB090E94F30A23E333E145E913
:1006300053E40E943B0B20E030EE46E755E40E9475
:100640007F099B01AC0164EE72EC8FE899E40E9493
:10065000EB0923E333E948E853E40E947E096896F6
:100660000FB6F894DEBF0FBECDBFDF91CF91FF90E4
:10067000EF90DF90CF900895CF92DF92EF92FF92AC
:100680000F931F93CF93DF93CDB7DEB768970FB665
:10069000F894DEBF0FBECDBF8B0190917C00987F98
:1006A000892B80937C0080917A00806480937A000B
:1006B00080917A0086FDFCCFFE0131969E012B5E73
:1006C0003F4F8091780090917900819391938FE3CF
:1006D0009CE90197F1F700C00000E217F30789F7E2
:1006E00069817A81072E000C880B990B0E945F0AA2
:1006F00020E030E0A9010E947F099B01AC018B81C1
:100700009C81BC01990F880B990B2D8B3E8B4F8BD5
:10071000588F0E945F0A2D893E894F89588D0E940B
:100720007F099B01AC018D819E81BC01990F880BD3
:10073000990B2D8B3E8B4F8B588F0E945F0A2D8912
:100740003E894F89588D0E947F096B017C018F8102
:100750009885BC01990F880B990B0E945F0A9B0139
:10076000AC01C701B6010E947F096B017C0189853C
:100770009A85BC01990F880B990B0E945F0A9B0117
:10078000AC01C701B6010E947F096B017C018B851A
:100790009C85BC01990F880B990B0E945F0A9B01F5
:1007A000AC01C701B6010E947F096B017C018D85F8
:1007B0009E85BC01990F880B990B0E945F0A9B01D3
:1007C000AC01C701B6010E947F096B017C018F85D6
:1007D0009889BC01990F880B990B0E945F0A9B01B5
:1007E000AC01C701B6010E947F096B017C018989B8
:1007F0009A89BC01990F880B990B0E945F0A9B0193
:10080000AC01C701B6010E947F099B01AC018B8935
:100810009C89BC01990F880B990B2D8B3E8B4F8BBC
:10082000588F0E945F0A2D893E894F89588D0E94FA
:100830007F0920E030E040E251E40E94EB099B0197
:10084000AC0160E070EC8FE794E40E94EB0920E0DB
:1008500030E040E85FE30E947E0920E030E44CE1B4
:1008600056E40E943B0B20E030E44CE156E40E9449
:10087000EB090E94F30A23E333E145E953E40E94C4
:100880003B0B20E030EE46E755E40E947F099B01D8
:10089000AC0164EE72EC8FE899E40E94EB0923E36B
:1008A00033E948E853E40E947E0960932402709380
:1008B0002502809326029093270282E0F80182832A
:1008C00080917800838380917900848368960FB645
:1008D000F894DEBF0FBECDBFDF91CF911F910F9176
:1008E000FF90EF90DF90CF900895CF92DF92EF923C
:1008F000FF920F931F93CF93DF93CDB7DEB7689727
:100900000FB6F894DEBF0FBECDBFE82FF0E0F09732
:10091000E830F105E8F01092310280E58093290279
:1009200080932A0286E0EBE2F2E0DF011D928A95D5
:10093000E9F768960FB6F894DEBF0FBECDBFDF9122
:10094000CF911F910F91FF90EF90DF90CF9008957E
:100950008827E658FF4F8F4F0C94760983E48093E5
:100960007C0087E880937A0080917C00887F866095
:1009700080937C0080917A00806480937A008091DB
:100980007A0086FDFCCFFE0131969E012B5E3F4F23
:100990008091780090917900819391938FE39CE905
:1009A0000197F1F700C00000E217F30789F76981AA
:1009B0007A81072E000C880B990B0E945F0A20E0B9
:1009C00030E0A9010E947F099B01AC018B819C81D1
:1009D000BC01990F880B990B2D8B3E8B4F8B588F39
:1009E0000E945F0A2D893E894F89588D0E947F0998
:1009F0009B01AC018D819E81BC01990F880B990BE5
:100A00002D8B3E8B4F8B588F0E945F0A2D893E891C
:100A10004F89588D0E947F096B017C018F819885D9
:100A2000BC01990F880B990B0E945F0A9B01AC01D6
:100A3000C701B6010E947F096B017C0189859A85F7
:100A4000BC01990F880B990B0E945F0A9B01AC01B6
:100A5000C701B6010E947F096B017C018B859C85D3
:100A6000BC01990F880B990B0E945F0A9B01AC0196
:100A7000C701B6010E947F096B017C018D859E85AF
:100A8000BC01990F880B990B0E945F0A9B01AC0176
:100A9000C701B6010E947F096B017C018F8598898F
:100AA000BC01990F880B990B0E945F0A9B01AC0156
:100AB000C701B6010E947F096B017C0189899A896F
:100AC000BC01990F880B990B0E945F0A9B01AC0136
:100AD000C701B6010E947F099B01AC018B899C89EB
:100AE000BC01990F880B990B2D8B3E8B4F8B588F28
:100AF0000E945F0A2D893E894F89588D0E947F0987
:100B000020E030E040E251E40E94EB099B01AC019F
:100B100060E070EC8FE794E40E94EB0920E030E0A5
:100B200040E85FE30E947E0920E030E44CE156E4B7
:100B30000E943B0B20E030E44CE156E40E94EB09BC
:100B40000E94F30A0FB6F894DEBF0FBECDBF23E3B9
:100B500033E145E953E40E943B0B20E030EE46E7E9
:100B600055E40E947F099B01AC0164EE72EC8FE8B2
:100B700099E40E94EB0923E333E948E853E40E9437
:100B80007E0960932402709325028093260290933D
:100B9000270282E080932B028091780080932C02C0
:100BA0008091790080932D02C4CE87E480937C00ED
:100BB00087E880937A00BDCE6C98BBCE6D98B9CE95
:100BC0006B98B7CE80910101877F80930101B1CEF0
:100BD000809101018F7E80930101ABCE8091010154
:100BE0008F7D80930101A5CEFC019081943040F56A
:100BF000923028F59130A9F480EE80932A028AE29F
:100C000080932B0288E480932C0285E480932D024C
:100C10008CE480932E0280932F028FE48093300225
:100C200008951092310285E58093290280932A026B
:100C300086E0EBE2F2E0DF011D928A95E9F7089584
:100C4000943029F0953069F783810C947504848180
:100C5000982F9095E381F0E0F097E830F10520F0CF
:100C60001092310280E5E0CF8827EE57FF4F8F4F7B
:100C70000C94760980912001816C809320018091F1
:100C8000210189608093210180910A01886080930D
:100C90000A01109229019093280108958091A000E3
:100CA0008D608093A0008091A10089608093A10055
:100CB000809101018062809301011092AD009093B8
:100CC000AC0008958091A00081638093A000809182
:100CD000A10089608093A1008091010180618093CF
:100CE00001011092AB009093AA0008958091A0009A
:100CF000816C8093A0008091A10089608093A10005
:100D0000809101018860809301011092A900909365
:100D1000A800089580919000816C8093900080914C
:100D200091008960809391006B9A10929900909342
:100D300098000895809190008D608093900080913C
:100D400091008960809391006D9A10929D0090931C
:100D50009C00089580919000816380939000809121
:100D600091008960809391006C9A10929B009093FF
:100D70009A000895809120018D60809320018091D8
:100D8000210189608093210180910A018062809312
:100D90000A0110922D0190932C010895FC01908579
:100DA000983040F4DF01A90FB11D6C939F5F9087CD
:100DB00080E0089581E00895FC018085883058F432
:100DC000DF01A80FB11D8C91DB018C9380858F5FB3
:100DD000808780E0089581E008951092C50083E344
:100DE0008093C400E2ECF0E0808186608083E1ECD7
:100DF000F0E080818069808308951F920F920FB682
:100E00000F9211240BB60F922F933F934F935F9342
:100E10006F937F938F939F93AF93BF93EF93FF93C2
:100E20009091C60080913A028830E8F4E82FF0E013
:100E3000EE5CFD4F90838F5F80933A02883099F08B
:100E4000FF91EF91BF91AF919F918F917F916F91A2
:100E50005F914F913F912F910F900BBE0F900FBE5E
:100E60000F901F9018958091C1008F768093C100DC
:100E7000109231028EE48093290280932A02EBE2E1
:100E8000F2E086E0DF011D928A95E9F720913402B5
:100E9000922F969596959695892F8695382F317035
:100EA0009170930F8695382F3170930F8695382F58
:100EB0003170930F322F37708695890F381731F0C4
:100EC0008091C10088628093C100BACF4091320204
:100ED00050913302822F90E09C01240F311D6091CC
:100EE00036028091350290E0860F911D820F931F8C
:100EF00020913702820F911D20913802820F911D9F
:100F000020913902820F911D292F3327232B09F0BD
:100F100001965813D5CF81E48093290280932A0249
:100F200086E0DF011D928A95E9F7443048F04430AD
:100F300061F14530F9F4809135020E947504C0CF0B
:100F4000423008F0BDCF4130A9F480EE80932A02F0
:100F50008AE280932B0288E480932C0285E48093BC
:100F60002D028CE480932E0280932F028FE48093D5
:100F70003002A6CF85E58093290280932A0286E07D
:100F8000DF011D928A95E9F79BCF6091360280912F
:100F900035020E941E0194CF1F920F920FB60F923E
:100FA00011240BB60F928F939F93AF93BF93EF9340
:100FB000FF93809131028830C8F4E82FF0E0E75DBC
:100FC000FD4F90819093C6008F5F809331028830EF
:100FD00069F0FF91EF91BF91AF919F918F910F9029
:100FE0000BBE0F900FBE0F901F9018958091C100FF
:100FF000877D8093C10010923A0288E0E2E3F2E03C
:10100000DF011D928A95E9F78091C1008069809384
:10101000C100DFCF1F920F920FB60F9211242F93B2
:101020008F939F9383B1809328028091280284FD3F
:101030000AC08091AA008B3108F4A8C08091AA0050
:101040008A518093AA008091280285FD0AC0809170
:10105000AA00853E08F091C08091AA00865E809328
:10106000AA008091280286FD0AC08091AC008B31D5
:1010700008F47BC08091AC008A518093AC008091D1
:10108000280287FD0CC08091AC00853E08F450C05A
:101090008091AC008F3F19F08FEF8093AC0080916E
:1010A000280280FD0AC0809128018B3108F44EC0CF
:1010B000809128018A51809328018091280281FD26
:1010C00009C080912801853EC8F580912801865E7F
:1010D000809328018091280282FD09C080912C0113
:1010E0008B31E0F180912C018A5180932C01809109
:1010F000280283FD0CC080912C01853E08F44EC06F
:1011000080912C018F3F19F08FEF80932C012FEFEE
:1011100083EC99E0215080409040E1F700C000004E
:101120009F918F912F910F900FBE0F901F90189548
:101130008091AC00865E8093AC00B1CF8091280195
:101140008F3F41F28FEF80932801C4CF8091280117
:10115000882309F4B2CF10922801AFCF80912C01DF
:10116000882329F210922C01C2CF8091AC008823F1
:1011700009F485CF1092AC0082CF8091AA008F3FF6
:1011800009F46FCF8FEF8093AA006BCF8091AA00F4
:10119000882309F458CF1092AA0055CF80912C01D2
:1011A000865E80932C01B3CF84B114B885B19FEFD4
:1011B00095B9E8E6F0E0808181608083EBE6F0E0BD
:1011C0008081908308958A3049F09091C00095FF06
:1011D000FCCF8093C60080E090E008959091C0001D
:1011E00095FFFCCF9DE09093C600EFCF9093C50094
:1011F0008093C40086E08093C20088E98093C10098
:1012000008959091C00095FFFCCF8093C60008958B
:101210008091C00087FFFCCF8091C6000895809127
:10122000C000881F8827881F0895FC012081222381
:1012300051F031969091C00095FFFCCF2093C600ED
:1012400021912111F7CF089580E092E090933E0222
:1012500080933D021092C50082E38093C40086E033
:101260008093C20088E98093C100089510923A02E9
:1012700088E0E2E3F2E0DF011D928A95E9F710923F
:1012800031028EE48093290280932A0286E0EBE209
:10129000F2E0DF011D928A95E9F783B7817F83BF72
:1012A0001092C50083E38093C4008091C2008660E1
:1012B0008093C2008091C10080698093C10084B195
:1012C00014B885B19FEF95B98091680081608093D3
:1012D000680080916B0090936B00789483B7816075
:1012E00083BF889583B78E7F83BFF8CFEE0FFF1F34
:1012F000881F8BBF0790F691E02D19945058BB279B
:10130000AA270E9496090C94B10A0E94A30A38F0F9
:101310000E94AA0A20F039F49F3F19F426F40C9495
:10132000A00A0EF4E095E7FB0C949A0AE92F0E94BC
:10133000C20A58F3BA17620773078407950720F0AB
:1013400079F4A6F50C94E40A0EF4E0950B2EBA2F6E
:10135000A02D0B01B90190010C01CA01A0011124BB
:10136000FF27591B99F0593F50F4503E68F11A1667
:10137000F040A22F232F342F4427585FF3CF4695F8
:1013800037952795A795F0405395C9F77EF41F161A
:10139000BA0B620B730B840BBAF09150A1F0FF0FE4
:1013A000BB1F661F771F881FC2F70EC0BA0F621FD0
:1013B000731F841F48F4879577956795B795F795C0
:1013C0009E3F08F0B0CF9395880F08F09927EE0F55
:1013D0009795879508950E94FF090C94B10A0E9481
:1013E000AA0A58F00E94A30A40F029F45F3F29F0AE
:1013F0000C949A0A51110C94E50A0C94A00A0E94CC
:10140000C20A68F39923B1F3552391F3951B550B49
:10141000BB27AA2762177307840738F09F5F5F4FC7
:10142000220F331F441FAA1FA9F335D00E2E3AF006
:10143000E0E832D091505040E695001CCAF72BD01E
:10144000FE2F29D0660F771F881FBB1F261737076F
:101450004807AB07B0E809F0BB0B802DBF01FF27A1
:1014600093585F4F3AF09E3F510578F00C949A0ADA
:101470000C94E50A5F3FE4F3983ED4F386957795A4
:101480006795B795F7959F5FC9F7880F911D96955A
:10149000879597F90895E1E0660F771F881FBB1FB6
:1014A000621773078407BA0720F0621B730B840B63
:1014B000BA0BEE1F88F7E0950895E89409C097FBF2
:1014C0003EF490958095709561957F4F8F4F9F4F1B
:1014D0009923A9F0F92F96E9BB279395F69587955F
:1014E00077956795B795F111F8CFFAF4BB0F11F422
:1014F00060FF1BC06F5F7F4F8F4F9F4F16C08823C9
:1015000011F096E911C0772321F09EE8872F762FFE
:1015100005C0662371F096E8862F70E060E02AF03F
:101520009A95660F771F881FDAF7880F969587952B
:1015300097F9089597F99F6780E870E060E0089553
:101540009FEF80EC089500240A94161617061806DB
:101550000906089500240A941216130614060506B7
:101560000895092E0394000C11F4882352F0BB0F48
:1015700040F4BF2B11F460FF04C06F5F7F4F8F4FAB
:101580009F4F089557FD9058440F551F59F05F3FE6
:1015900071F04795880F97FB991F61F09F3F79F095
:1015A00087950895121613061406551FF2CF469517
:1015B000F1DF08C0161617061806991FF1CF869599
:1015C0007105610508940895E894BB27662777277D
:1015D000CB0197F9089516F00C94A80B0C94A00A6F
:1015E00068940C949A0A0E94CA0AA8F39923C1F33A
:1015F000AEF3DF93CF931F930F93FF92C92FDD2795
:1016000088232AF02197660F771F881FDAF720E0DA
:1016100030E040E85FEB9FE3883920F0803E38F00F
:1016200021968F770E947F09E4E1F1E004C00E94D7
:101630007F09E1E4F1E00E94B60B8B01BE01EC01F1
:10164000FB2E6F5771097595771F880B990B0E94B8
:101650005F0A28E132E741E35FE30E944E0BAF2DC2
:101660009801AE01FF900F911F91CF91DF910E94E1
:1016700096090C94B10A0E944E0B0C94B10A0E9478
:10168000A30A38F00E94AA0A20F0952311F00C94C6
:101690009A0A0C94A00A11240C94E50A0E94C20A2A
:1016A00070F3959FC1F3950F50E0551F629FF001B5
:1016B000729FBB27F00DB11D639FAA27F00DB11DCE
:1016C000AA1F649F6627B00DA11D661F829F222757
:1016D000B00DA11D621F739FB00DA11D621F839FDE
:1016E000A00D611D221F749F3327A00D611D231FB4
:1016F000849F600D211D822F762F6A2F11249F5702
:1017000050409AF0F1F088234AF0EE0FFF1FBB1F04
:10171000661F771F881F91505040A9F79E3F5105C3
:1017200080F00C949A0A0C94E50A5F3FE4F3983E2B
:10173000D4F3869577956795B795F795E7959F5F6D
:10174000C1F7FE2B880F911D9695879597F90895FF
:101750009F3F31F0915020F4879577956795B79525
:10176000880F911D9695879597F90895DF93CF93EC
:101770001F930F93FF92EF92DF927B018C0168948D
:1017800006C0DA2EEF010E944E0BFE01E894A591EF
:101790002591359145915591A6F3EF010E94960947
:1017A000FE019701A801DA9469F7DF90EF90FF90AE
:0E17B0000F911F91CF91DF910895F894FFCF14
:1017BE000000000200000000E308000000000040EE
:1017CE001C463313954300E0764500C07F4400402D
:0417DE001C460A009B
:0400000300000432C3
:00000001FF
