:100000000C94E9000C940A010C940A010C940A0166
:100010000C940A010C940A010C940A010C940A0134
:100020000C940A010C940A010C940A010C94FF0729
:100030000C940A010C94FA060C940A010C940A011F
:100040000C940A010C940A010C940A010C940A0104
:100050000C940A010C940A010C940A010C940A01F4
:100060000C940A010C94D9050C94BC060C940A015A
:100070000C940A010C940A010C940A010C940A01D4
:100080000C940A010C940A010C940A010C940A01C4
:100090000C940A010C940A010C940A010C940A01B4
:1000A0000C940A010C940A010C940A010C940A01A4
:1000B0000C940A010C940A010C940A010C940A0194
:1000C0000C940A010C940A010C940A010C940A0184
:1000D0000C940A010C940A010C940A010C940A0174
:1000E0000C940A011D022D023D024D0261027502AF
:1000F0000D02E8011C032B033A035C0349036F0361
:100100000E03EA0282048E040F0519054F055304FD
:100110005904A3079D07970758079107AF07A90739
:10012000F407EB07E207D907D007C707BE07B507F3
:100130004D070C9458070C94D9070C9482040C9426
:100140009D070C946F030C9491070C940D020C9472
:10015000F4070C94E8010C944F050C941D020C94C8
:100160005C030C9459040C94E2070C943D020C942B
:100170002D020C943A030C948E040C9449030C94B5
:10018000A9070C94A3070C940F050C942B030C9453
:1001900019050C94EA020C94D0070C9497070C9460
:1001A000AF070C94C7070C9453040C941C030C94D5
:1001B0004D070C9475020C940E030C94B5070C9427
:1001C00061020C944D020C94CB080C94EB070C9438
:1001D000BE0711241FBECFEFD1E2DEBFCDBF00E0CE
:1001E0000CBF12E0A0E0B2E0EAEDF2E100E00BBFEC
:1001F00002C007900D92A031B107D9F722E0A0E12B
:10020000B2E001C01D92A534B207E1F70E941E09B9
:100210000C946B090C940000FC01108628E01192EC
:100220002A95E9F70895DC0118961C92FC01619368
:1002300087E0DF011D928A95E9F708951092B000DA
:100240008DE08093B1008CE98093B300F894E0E7EF
:10025000F0E080818260808378940895E7E0F1E0A7
:1002600080811082E8E0F1E080819FEF9083F89434
:10027000E8E6F0E0808184608083EDE6F0E0808154
:10028000908378940895279A0895FC012381283457
:1002900021F08EE4FB018083089524812534C9F781
:1002A00025812C34B1F726812C3499F787818F343E
:1002B00081F781E0FB01828385E083830895CF93FA
:1002C000DF93EC011092290210929000109291009D
:1002D0009DB1977C9DB91092990010929800109250
:1002E0009B0010929A0010929D0010929C00109218
:1002F000A0001092A100E1E0F1E09081977C908352
:100300001092A9001092A8001092AB001092AA00BF
:100310001092AD001092AC001092800010928100FB
:1003200094B19F7994B9109289001092880010922C
:100330008B0010928A0010922802A0E2B2E01C9278
:10034000E0E1F2E01182108211961C921197138263
:10035000128212961C9212971582148213961C9286
:1003600013971782168214961C9214971186108682
:1003700015961C9215971386128616961C92169740
:100380001586148617961C921786168610927C0086
:1003900010927A00F8941092700078941092B10044
:1003A0001092B30082E08A831B82DF91CF9108957F
:1003B0000F931F93982F6095082F10E008301105B8
:1003C000B0F4F8018827EE58FF4F8F4F0C94630963
:1003D000809180008163809380008091810089609A
:1003E00080938100269A10928B0060938A0021E00E
:1003F00030E0B90102C0660F771F9A95E2F7CB0192
:1004000090912902892B8093290283E0FA0182834B
:1004100082E083831F910F91089580918000816C09
:100420008093800080918100896080938100259A6B
:100430001092890060938800DACF809190008163E8
:1004400080939000809191008960809391006C9AD4
:1004500010929B0060939A00CACF809190008D60AB
:1004600080939000809191008960809391006D9AB3
:1004700010929D0060939C00BACF80919000816C97
:1004800080939000809191008960809391006B9A95
:100490001092990060939800AACF8091A000816C7F
:1004A0008093A0008091A10089608093A100809139
:1004B00001018860809301011092A9006093A80057
:1004C00096CF8091A00081638093A0008091A100CD
:1004D00089608093A1008091010180618093010176
:1004E0001092AB006093AA0082CF8091A0008D6033
:1004F0008093A0008091A10089608093A1008091E9
:1005000001018062809301011092AD006093AC0004
:100510006ECFCF93DF93DA0150912802511117C0AB
:1005200090E490937C0097E890937A001092B0004A
:100530009DE09093B1009CE99093B300F894909162
:100540007000926090937000789450912802E82F88
:10055000F0E021E030E0E90102C0CC0FDD1F8A9518
:10056000E2F7CE01852B80932802E05EFD4F608389
:1005700084E012968C93129782E013968C93DF910D
:10058000CF910895DB0195E012969C93129791E02C
:1005900013969C931397E82FF0E0EE0FFF1FE05F98
:1005A000FD4F8081918114968C9314978081918165
:1005B00015969C9308950F931F93982F082F10E082
:1005C00008301105A0F4F8018827E658FF4F8F4F37
:1005D0000C9463098091290286FD93C010928000DB
:1005E00010928100269810928B0010928A0021E0D0
:1005F00030E0A90102C0440F551F9A95E2F7CA01E5
:1006000080959091290289238093290286E0FB013D
:10061000828381E083831F910F9108958091290245
:1006200087FD99C010928000109281002598109249
:10063000890010928800DBCF80912902867009F032
:1006400066C010929000109291006C9810929B00DE
:1006500010929A00CCCF80912902857009F063C076
:1006600010929000109291006D9810929D0010923F
:100670009C00BDCF80912902837009F060C0109268
:100680009000109291006B9810929900109298002F
:10069000AECF80912902887209F04BC01092A00061
:1006A0001092A100809101018F7E80930101109230
:1006B000AB001092AA009BCF80912902807309F0B1
:1006C00044C01092A0001092A10080910101877F88
:1006D000809301011092A9001092A80088CF809108
:1006E00029028871D1F41092A0001092A10080918B
:1006F00001018F7D809301011092AD001092AC003A
:1007000076CF809180008F7C809380006BCF80912A
:1007100090008F7C8093900098CF8091A000837F81
:100720008093A000E4CF80919000837F809390001D
:100730009BCF8091A0008F7C8093A000B3CF80914D
:1007400090008F73809390009ECF8091A0008F7354
:100750008093A000BACF809180008F738093800037
:1007600065CFE82FF0E021E030E0A90102C0440F9E
:10077000551F8A95E2F7CA01809590912802892336
:1007800080932802E05EFD4F108281110CC0109210
:100790007C0010927A00F894109270007894109275
:1007A000B1001092B30087E0FB01828381E0838374
:1007B0000895FC0180819FEF980F973010F08FEF24
:1007C00008952281322F369536953695932F96953A
:1007D0003170492F4170340F9695492F4170340F75
:1007E0009695492F4170340F422F47709695930F7D
:1007F0004913E5CF418130E0280F311D54818381B9
:1008000090E0850F911D820F931F2581820F911D0E
:100810002681820F911D2781820F911D292F332759
:10082000232B09F001964813CACF1092350281E4B8
:1008300080932D0287E0EEE2F2E0DF011D928A95BF
:10084000E9F780E008950F931F93DC01EC910E2FE0
:1008500010E0F8013197E730F10510F58827EE57E1
:10086000FF4F8F4F0C94630914968C911497853425
:1008700009F04EC015968C9115978C3409F048C03C
:1008800016968C9116978C3409F042C017968C916D
:100890008F3409F03DC081E0FB01828385E08383D2
:1008A0001F910F91089513968C911F910F910C94A5
:1008B000DB0213962C91E22FF0E081E090E001C082
:1008C000880F2A95EAF780959091280289238093D2
:1008D0002802E05EFD4F108281110CC010927C0056
:1008E00010927A00F8941092700078941092B100EF
:1008F0001092B30087E0FB01828381E083831F9124
:100900000F91089513968C911397883409F4ACCF06
:100910008EE4DB018C931F910F91089510922902B0
:1009200010929000109291008DB1877C8DB9109239
:1009300099001092980010929B0010929A001092C9
:100940009D0010929C001092A0001092A100809136
:100950000101877C809301011092A9001092A800E8
:100960001092AB001092AA001092AD001092AC0051
:10097000109280001092810084B18F7984B9109216
:1009800089001092880010928B0010928A001092B9
:10099000280210922002109211021092100210925E
:1009A000210210921302109212021092220210924F
:1009B0001502109214021092230210921702109244
:1009C000160210922402109219021092180210922C
:1009D000250210921B0210921A0210922602109207
:1009E0001D0210921C021092270210921F021092F8
:1009F0001E0210927C0010927A00F89410927000FF
:100A000078941092B1001092B30082E0DB0112964C
:100A10008C93129713961C921F910F910895AB011E
:100A200014966C91149713968C911F910F910C94BE
:100A3000D80114964C91149713963C91209128025A
:100A4000211117C080E480937C0087E880937A00AE
:100A50001092B0008DE08093B1008CE98093B300D8
:100A6000F894809170008260809370007894209157
:100A70002802E32FF0E081E090E001C0880F3A9572
:100A8000EAF7822B80932802E05EFD4F408384E0EA
:100A9000FB01828382E083831F910F910895139657
:100AA000EC9185E0DB0112968C93129781E013960E
:100AB0008C931397F0E0EE0FFF1FE05FFD4F8081F6
:100AC000918114968C9314978081918115969C93B3
:100AD0001F910F910895FC019085983040F4DF013B
:100AE000A90FB11D6C939F5F908780E0089581E00E
:100AF0000895FC018381982F9695482F4170292FE6
:100B00002170420F9695292F2170420F9695292F1B
:100B10002170420F382F330F330F330F91FB2227F1
:100B200020F9942F920F932B93834081228130E000
:100B3000240F311D290F311D882391F09481290F35
:100B4000311D823068F09581290F311D823041F0CE
:100B50009681290F311D833019F08781280F311DAF
:100B6000832F9927892B11F02F5F3F4F2183089501
:100B7000FC018085883058F4DF01A80FB11D8C91ED
:100B8000DB018C9380858F5F808780E0089581E012
:100B900008951092C50083E38093C400E2ECF0E076
:100BA000808186608083E1ECF0E0808180698083D1
:100BB00008951F920F920FB60F9211240BB60F9249
:100BC0002F933F934F935F936F937F938F939F9355
:100BD000AF93BF93EF93FF939091C60080913E0235
:100BE0008830E8F4E82FF0E0EA5CFD4F90838F5FF7
:100BF00080933E02883099F0FF91EF91BF91AF91C1
:100C00009F918F917F916F915F914F913F912F9124
:100C10000F900BBE0F900FBE0F901F9018958091F4
:100C2000C1008F768093C100109235028EE48093CC
:100C30002D02EEE2F2E087E0DF011D928A95E9F7EE
:100C4000909136028FEF890F873008F44BC02091C6
:100C50003002822F8695482F4170922F9170490F54
:100C60008695982F9170490F8695982F9170490F0E
:100C7000322F330F330F330F81FB992790F9842FD5
:100C8000890F382B3093300240912D0280912F0232
:100C900090E0840F911D830F911D2223B1F03091BC
:100CA0003102830F911D223080F030913202830F88
:100CB000911D223051F030913302830F911D23306A
:100CC00021F020913402820F911D292F3327232BED
:100CD00009F0019680932E028091C1008862809372
:100CE000C1008ACF20913802322F3695369536953D
:100CF000832F86953170482F4170340F8695482F89
:100D00004170340F8695482F4170340F422F477041
:100D10008695830F48139BCF4091370230E0290F0F
:100D2000311D50913A028091390290E0850F911D5A
:100D3000820F931F20913B02820F911D20913C0254
:100D4000820F911D20913D02820F911D292F332783
:100D5000232B09F0019648137ACF81E480932D026A
:100D600087E0DF011D928A95E9F76DE272E086E384
:100D700092E00E9423046BCF1F920F920FB60F9246
:100D800011240BB60F928F939F93AF93BF93EF9362
:100D9000FF93809135028830C8F4E82FF0E0E35DDE
:100DA000FD4F90819093C6008F5F8093350288300D
:100DB00069F0FF91EF91BF91AF919F918F910F904B
:100DC0000BBE0F900FBE0F901F9018958091C10021
:100DD000877D8093C10010923E0288E0E6E3F2E056
:100DE000DF011D928A95E9F78091C10080698093A7
:100DF000C100DFCF1F920F920FB60F9211240BB6D6
:100E00000F922F933F934F935F938F939F93AF9343
:100E1000BF93EF93FF9380912A0290912B0201964A
:100E200090932B0280932A0280912A0290912B02A8
:100E3000883B9B4089F0FF91EF91BF91AF919F91CB
:100E40008F915F914F913F912F910F900BBE0F901B
:100E50000FBE0F901F90189510922B0210922A022D
:100E600020E030E08091280290E0022E02C09595AB
:100E700087950A94E2F780FF15C080917C00887FF7
:100E800080937C00F9013197E730F105B0F48827B1
:100E9000E757FF4F8F4F0C946309403F51050CF00B
:100EA000ACC02F9A2F5F3F4F28303105D9F6C3CF02
:100EB00080917C00846080937C0080917A008064C3
:100EC00080937A0080917A0086FDFCCF8091780033
:100ED00090917900F901EE0FFF1FE05FFD4F9183C4
:100EE000808380917800909179009695879596956A
:100EF00087958A3B910590F4AC014A5B5F4FF901FD
:100F0000E05EFD4F808190E08930910558F6FC014C
:100F10008827E057FF4F8F4F0C9463094FEF50E045
:100F2000EECF80917C00856080937C00C6CF80915D
:100F30007C00836080937C00C0CF80917C008260C5
:100F400080937C00BACF80917C00816080937C008C
:100F5000B4CF80917C00876080937C00AECF80917D
:100F60007C00866080937C00A8CF40938A002F5F2E
:100F70003F4F2830310509F075CF5DCF4093880091
:100F80002F5F3F4F2830310509F06CCF54CF40938D
:100F9000AC002F5F3F4F2830310509F063CF4BCFB6
:100FA0004093AA002F5F3F4F2830310509F05ACFF8
:100FB00042CF4093A8002F5F3F4F2830310509F002
:100FC00051CF39CF409398002F5F3F4F28303105E4
:100FD00009F048CF30CF40939C002F5F3F4F28301F
:100FE000310509F03FCF27CF40939A002F5F3F4F45
:100FF0002830310509F036CF1ECF2F9853CF1F92DE
:101000000F920FB60F9211242F938F939F9380917D
:10101000060180932C0280912C0280FD0AC08091F1
:10102000AA008B3108F4AFC08091AA008A51809346
:10103000AA0080912C0281FD0AC08091AA00853E01
:1010400008F098C08091AA00865E8093AA008091E3
:101050002C0282FD0AC08091AC008B3108F482C062
:101060008091AC008A518093AC0080912C0283FD6A
:101070000AC08091AC00853E08F06BC08091AC0046
:10108000865E8093AC0080912C0284FD0AC0809122
:1010900088008B3108F455C0809188008A51809374
:1010A000880080912C0285FD0AC080918800853ED1
:1010B00008F03FC080918800865E80938800809110
:1010C0002C0286FD09C080918A008B3158F18091F5
:1010D0008A008A5180938A0080912C0287FD0BC080
:1010E00080918A00853EC0F080918A008F3F19F080
:1010F0008FEF80938A002FEF83EC99E0215080409E
:101100009040E1F700C000009F918F912F910F90C8
:101110000FBE0F901F90189580918A00865E809375
:101120008A00E9CF80918A008823B1F210928A0068
:10113000D3CF809188008F3F11F28FEF809388008A
:10114000BECF80918800882309F4ABCF109288002D
:10115000A8CF8091AC008F3F09F495CF8FEF80939B
:10116000AC0091CF8091AC00882309F47ECF10921F
:10117000AC007BCF8091AA008F3F09F468CF8FEF3E
:101180008093AA0064CF8091AA00882309F451CFEC
:101190001092AA004ECF8A3049F09091C00095FF7E
:1011A000FCCF8093C60080E090E008959091C0004D
:1011B00095FFFCCF9DE09093C600EFCF9093C500C4
:1011C0008093C40086E08093C20088E98093C100C8
:1011D00008959091C00095FFFCCF8093C6000895BC
:1011E0008091C00087FFFCCF8091C6000895809158
:1011F000C000881F8827881F0895FC0120812223B2
:1012000051F031969091C00095FFFCCF2093C6001D
:1012100021912111F7CF089580E092E0909342024E
:10122000809341021092C50082E38093C40086E05F
:101230008093C20088E98093C100089510923E0215
:1012400088E0E6E3F2E0DF011D928A95E9F710926B
:1012500035028EE480932D0287E0EEE2F2E0DF01BA
:101260001D928A95E9F783B7817F83BF1092C500ED
:1012700083E38093C4008091C20086608093C200A3
:101280008091C10080698093C10080910701109214
:101290000701809108019FEF90930801F8948091D5
:1012A000680084608093680080916D0090936D0069
:1012B0007894279A789483B7816083BF889583B7A1
:1012C0008E7F83BFF8CFEE0FFF1F881F8BBF079065
:0A12D000F691E02D1994F894FFCF79
:1012DA000000000200000000CB08000000000A0025
:040000030000028A6D
:00000001FF
