:100000000C9474000C9495000C9495000C9495003D
:100010000C9495000C9495000C9495000C9495000C
:100020000C9495000C9495000C9495000C949500FC
:100030000C9495000C9495000C9495000C949500EC
:100040000C9495000C94D3000C9495000C9495009E
:100050000C9495000C9495000C9495000C949500CC
:100060000C9495000C9495000C9495000C949500BC
:100070000C9495000C9495000C9495000C949500AC
:100080000C9495000C9495000C9495000C9495009C
:100090000C9495000C9495000C9495000C9495008C
:1000A0000C9495000C9495000C9495000C9495007C
:1000B0000C9495000C9495000C9495000C9495006C
:1000C0000C9495000C9495000C9495000C9495005C
:1000D0000C9495000C9495000C9495000C9495004C
:1000E0000C9495000C94EC0011241FBECFEFD1E2CC
:1000F000DEBFCDBF00E00CBF12E0A0E0B2E0EEE951
:10010000F3E000E00BBF02C007900D92AE37B107DD
:10011000D9F722E0AEE7B2E001C01D92A538B207E0
:10012000E1F70E943F010C94CD010C940000109265
:10013000C50083E38093C40086E08093C20088E911
:100140008093C10008959091C00095FFFCCF8093EB
:10015000C60008958091C00087FFFCCF8091C60043
:100160000895FC019091C00097FFFCCF9091C600CC
:100170009193992329F09A3011F09D3099F71192BB
:100180009E2F981B892F0895FC012081222351F076
:1001900031969091C00095FFFCCF2093C60021912D
:1001A0002111F7CF08951F920F920FB60F921124CD
:1001B0008F9381E080937E028F910F900FBE0F90FE
:1001C0001F901895FC018081833621F481E0918194
:1001D0009F3609F080E008958A3049F09091C00080
:1001E00095FFFCCF8093C60080E090E00895909149
:1001F000C00095FFFCCF9DE09093C600EFCF909399
:10020000C5008093C40086E08093C20088E9809393
:10021000C10008959091C00095FFFCCF8093C60067
:1002200008958091C00087FFFCCF8091C60008959B
:100230008091C000881F8827881F0895FC012081B5
:10024000222351F031969091C00095FFFCCF20936E
:10025000C60021912111F7CF089580E092E090939C
:100260008202809381021092C50082E38093C400D1
:1002700086E08093C20088E98093C1000895CF93FF
:10028000DF93CDB7DEB7DA950FB6F894DEBF0FBEB9
:10029000CDBF1092C50083E38093C40086E08093B5
:1002A000C20088E98093C100109280008DE08093A5
:1002B000810088E09AE79093890080938800F89401
:1002C00080916F00826080936F00789480917E02AD
:1002D0008823E1F3EFE0F2E083E49091C00095FF22
:1002E000FCCF8093C60081918111F7CFF894FE0175
:1002F00031968091C00087FFFCCF8091C60081932A
:10030000882329F08A3011F08D3099F71082EEE6BB
:10031000F2E094E48091C00085FFFCCF9093C6008A
:1003200091919111F7CF9981992359F0FE0132965D
:100330008091C00085FFFCCF9093C60091919111F0
:10034000F7CFECE2F2E093E48091C00085FFFCCFB0
:100350009093C60091919111F7CF8981833681F4F2
:100360008A818F3669F4EFE5F2E093E48091C00072
:1003700085FFFCCF9093C60091919111F7CFB7CF35
:10038000E8E4F2E099E48091C00085FFFCCF90930F
:0E039000C60091919111F7CFAACFF894FFCF3C
:10039E000000000200000000EC00000000004368B6
:1003AE0065636B696E6720696620706320697320D0
:1003BE00636F6E6E65637465640A00436865636B94
:1003CE00696E672061707020617574686F72697AEA
:1003DE006174696F6E0A00496E76616C69642063A0
:1003EE006F64652072656365697665640A00436FA4
:1003FE0064652061636365707465640A00446174AA
:0E040E00612072656365697665643A200000BE
:00000001FF
