:100000000C94A4000C94C5000C94C5000C94C5007D
:100010000C94C5000C94C5000C94C5000C94C5004C
:100020000C94C5000C9479030C94C5000C94C50085
:100030000C94C5000C94C5000C94C5000C94C5002C
:100040000C94C5000C94C5000C94C5000C94C5001C
:100050000C94C5000C94C5000C94C5000C94C5000C
:100060000C94C5000C94B3020C943F030C94C5008F
:100070000C94C5000C94C5000C94C5000C94C500EC
:100080000C94C5000C94C5000C94C5000C94C500DC
:100090000C94C5000C94C5000C94C5000C94C500CC
:1000A0000C94C5000C94C5000C94C5000C94C500BC
:1000B0000C94C5000C94C5000C94C5000C94C500AC
:1000C0000C94C5000C94C5000C94C5000C94C5009C
:1000D0000C94C5000C94C5000C94C5000C94C5008C
:1000E0000C94C5001E012E013E014E0162017601F5
:1000F000F6000A016002500240022C0218020402BB
:10010000F00170020C942E010C941E010C94180244
:100110000C944E010C94F6000C943E010C94F001EA
:100120000C9462010C942C020C940A010C94700241
:100130000C9450020C9440020C9476010C946002D2
:100140000C9469040C94040211241FBECFEFD1E279
:10015000DEBFCDBF00E00CBF12E0A0E0B2E0E0EFF8
:10016000F9E000E00BBF02C007900D92AE30B1077E
:10017000D9F722E0AEE0B2E001C01D92AF35B20780
:10018000E1F70E94BC040C94F6040C940000FC01FE
:1001900010A20895FC0110A28EE48083818308954B
:1001A00021E4FC0120832183089525E5FC012083BF
:1001B0002183089520E5FC01208321830895609523
:1001C000E82FF0E0DF01A252BE4F6C93F097E830C9
:1001D000F10530F080E580931702809318020895AE
:1001E0008827EE58FF4F8F4F0C94EE04809120012A
:1001F000816C80932001809121018960809321018D
:1002000080910A01886080930A011092290160930D
:1002100028010895809120018D60809320018091B4
:10022000210189608093210180910A01806280937D
:100230000A0110922D0160932C0108958091900085
:1002400081638093900080919100896080939100F8
:100250006C9A10929B0060939A0008958091900090
:100260008D608093900080919100896080939100CF
:100270006D9A10929D0060939C000895809190006B
:10028000816C8093900080919100896080939100AF
:100290006B9A109299006093980008958091A00045
:1002A000816C8093A0008091A10089608093A1005F
:1002B000809101018860809301011092A9006093F0
:1002C000A80008958091A00081638093A000809190
:1002D000A10089608093A1008091010180618093D9
:1002E00001011092AB006093AA0008958091A000D4
:1002F0008D608093A0008091A10089608093A1000F
:10030000809101018062809301011092AD006093A1
:10031000AC000895FC012281422F469546954695F2
:10032000342F3695532F51704170450F3695532F0A
:100330005170450F3695532F5170450F522F5770FE
:100340003695340F531711F080E008956181408194
:1003500030E0240F311D3396AC01405E5F4F919128
:10036000290F311DE417F507D1F7832F9927892B22
:1003700011F02F5F3F4F6213E7CF81E480931702A4
:100380008093180281E00895DC019C91943061F023
:1003900040F4913020F585E5809317028093180290
:1003A00008959530C1F708951396EC91139714961C
:1003B0009C919095F0E0DF01A252BE4F9C93F09784
:1003C000E830F10530F080E5809317028093180241
:1003D00008958827E658FF4F8F4F0C94EE04089538
:1003E00080912001816C809320018091210189609E
:1003F0008093210180910A01886080930A01109204
:1004000029019093280108958091A0008D60809328
:10041000A0008091A10089608093A10080910101DA
:100420008062809301011092AD009093AC0008951A
:100430008091A00081638093A0008091A1008960D9
:100440008093A1008091010180618093010110924D
:10045000AB009093AA0008958091A000816C8093D6
:10046000A0008091A10089608093A100809101018A
:100470008860809301011092A9009093A8000895CC
:1004800080919000816C80939000809191008960B0
:10049000809391006B9A1092990090939800089520
:1004A000809190008D608093900080919100896090
:1004B000809391006D9A10929D0090939C000895F6
:1004C0008091900081638093900080919100896079
:1004D000809391006C9A10929B0090939A000895DB
:1004E000809120018D60809320018091210189609D
:1004F0008093210180910A01806280930A01109209
:100500002D0190932C010895FC0190A1903240F4AC
:10051000DF01A90FB11D6C939F5F90A380E0089548
:1005200081E00895FC0120A1223010F081E00895BF
:10053000E20FF11D2081FB012083FC0120A12F5F30
:1005400020A380E008951092C50083E38093C40047
:10055000E2ECF0E0808186608083E1ECF0E0808175
:100560008069808308951F920F920FB60F92112415
:100570000BB60F922F933F934F935F936F937F939D
:100580008F939F93AF93BF93EF93FF939091C60088
:10059000809158028032E8F4E82FF0E0E85CFD4FEB
:1005A00090838F5F80935802803299F0FF91EF9192
:1005B000BF91AF919F918F917F916F915F914F917B
:1005C0003F912F910F900BBE0F900FBE0F901F9079
:1005D00018958091C1008F768093C10080913A0276
:1005E000282F269526952695922F9695392F31708E
:1005F0002170230F9695392F3170230F9695392F3F
:100600003170230F382F37709695920F391731F0CC
:100610008091C10088628093C100C8CF30913802B8
:100620004091390290E0830F911DEBE3F2E02191BC
:10063000820F911D22E0E835F207C9F7692F77276D
:10064000672B09F001964813E3CF81E480931702EA
:1006500080931802343049F078F43130C8F685E5DB
:100660008093170280931802D3CF60913C0280914F
:100670003B020E94DF00CCCF353051F2F0CF1F9209
:100680000F920FB60F9211240BB60F928F939F9378
:10069000EF93FF93809137028230F0F08091C10098
:1006A000877D8093C10010925802109237028EE429
:1006B00080931702809318028091C1008069809313
:1006C000C100FF91EF919F918F910F900BBE0F9002
:1006D0000FBE0F901F901895E82FF0E0E95EFD4FD8
:1006E00090819093C6008F5F80933702823049F7E4
:1006F000D5CF1F920F920FB60F9211242F938F9385
:100700009F9383B1809316028091160284FD0AC0E4
:10071000809112028B3108F4A7C08A518093120293
:100720008093AA008091160285FD0AC08091120272
:10073000853E08F090C0865E809312028093AA00E6
:100740008091160286FD0AC0809113028B3108F455
:1007500060C08A51809313028093AC00809116028E
:1007600087FD0CC080911302853E08F458C08F3F6E
:1007700029F08FEF809313028093AC0080911602D2
:1007800080FD0AC0809114028B3108F456C08A5152
:1007900080931402809328018091160281FD0AC083
:1007A00080911402853E08F040C0865E809314025A
:1007B000809328018091160282FD0AC08091150263
:1007C0008B3108F441C08A518093150280932C012B
:1007D0008091160283FD0CC080911502853E08F4BD
:1007E00050C08F3F29F08FEF8093150280932C012A
:1007F0002FEF83EC99E0215080409040E1F700C05A
:1008000000009F918F912F910F900FBE0F901F901E
:100810001895811143C09091160297FDAFCF865E67
:10082000809313028093AC00A9CF8F3F19F28FEF12
:100830008093140280932801BDCF8823A1F11092E8
:10084000140210922801A8CF8823A9F01092150253
:1008500010922C01BDCF8F3F09F472CF8FEF8093A0
:1008600012028093AA006CCF882389F010921202A2
:100870001092AA0057CF90911602892F887093FD8D
:10088000B7CF865E8093150280932C01B1CF9091F3
:100890001602892F807295FF4ECF52CF109213020D
:1008A0001092AC005BCF90911602892F827091FF5D
:1008B0007CCF80CF84B114B885B19FEF95B9E8E6BD
:1008C000F0E0808181608083EBE6F0E080819083BE
:1008D00008958A3049F09091C00095FFFCCF809335
:1008E000C60080E090E008959091C00095FFFCCF95
:1008F0009DE09093C600EFCF9093C5008093C40015
:1009000086E08093C20088E98093C10008959091A9
:10091000C00095FFFCCF8093C60008958091C00071
:1009200087FFFCCF8091C60008958091C000881F8A
:100930008827881F0895FC012081222351F03196D9
:100940009091C00095FFFCCF2093C600219121110A
:10095000F7CF089580E092E090935C0280935B0271
:100960001092C50082E38093C40086E08093C200A9
:1009700088E98093C10008951092580210923702BE
:100980008EE4809317028093180283B7817F83BF20
:100990001092C50083E38093C4008091C2008660FA
:1009A0008093C2008091C10080698093C10084B1AE
:1009B00014B885B19FEF95B98091680081608093EC
:1009C000680080916B0090936B00789483B781608E
:1009D00083BF889583B78E7F83BFF8CFEE0FFF1F4D
:1009E000881F8BBF0790F691E02D1994F894FFCFE4
:0E09F00000000002000000006904000000008A
:00000001FF
